{
  "contractName": "EMine",
  "abi": [
    {
      "constant": true,
      "inputs": [],
      "name": "rewardOracle",
      "outputs": [
        {
          "name": "",
          "type": "address"
        }
      ],
      "payable": false,
      "stateMutability": "view",
      "type": "function"
    },
    {
      "constant": true,
      "inputs": [],
      "name": "owner",
      "outputs": [
        {
          "name": "",
          "type": "address"
        }
      ],
      "payable": false,
      "stateMutability": "view",
      "type": "function"
    },
    {
      "constant": true,
      "inputs": [
        {
          "name": "",
          "type": "address"
        }
      ],
      "name": "userType",
      "outputs": [
        {
          "name": "",
          "type": "uint8"
        }
      ],
      "payable": false,
      "stateMutability": "view",
      "type": "function"
    },
    {
      "constant": true,
      "inputs": [],
      "name": "lifecycleToken",
      "outputs": [
        {
          "name": "",
          "type": "address"
        }
      ],
      "payable": false,
      "stateMutability": "view",
      "type": "function"
    },
    {
      "constant": false,
      "inputs": [
        {
          "name": "newOwner",
          "type": "address"
        }
      ],
      "name": "transferOwnership",
      "outputs": [],
      "payable": false,
      "stateMutability": "nonpayable",
      "type": "function"
    },
    {
      "constant": true,
      "inputs": [],
      "name": "rewardToken",
      "outputs": [
        {
          "name": "",
          "type": "address"
        }
      ],
      "payable": false,
      "stateMutability": "view",
      "type": "function"
    },
    {
      "constant": true,
      "inputs": [
        {
          "name": "",
          "type": "address"
        },
        {
          "name": "",
          "type": "uint256"
        }
      ],
      "name": "products",
      "outputs": [
        {
          "name": "",
          "type": "uint256"
        }
      ],
      "payable": false,
      "stateMutability": "view",
      "type": "function"
    },
    {
      "inputs": [
        {
          "name": "_rewardToken",
          "type": "address"
        },
        {
          "name": "_lifecycleToken",
          "type": "address"
        },
        {
          "name": "_rewardOracle",
          "type": "address"
        }
      ],
      "payable": false,
      "stateMutability": "nonpayable",
      "type": "constructor"
    },
    {
      "anonymous": false,
      "inputs": [
        {
          "indexed": false,
          "name": "_tokenID",
          "type": "uint256"
        }
      ],
      "name": "ProductReturned",
      "type": "event"
    },
    {
      "anonymous": false,
      "inputs": [
        {
          "indexed": false,
          "name": "_tokenID",
          "type": "uint256"
        }
      ],
      "name": "ProductRecycled",
      "type": "event"
    },
    {
      "anonymous": false,
      "inputs": [
        {
          "indexed": true,
          "name": "previousOwner",
          "type": "address"
        },
        {
          "indexed": true,
          "name": "newOwner",
          "type": "address"
        }
      ],
      "name": "OwnershipTransferred",
      "type": "event"
    },
    {
      "constant": false,
      "inputs": [
        {
          "name": "_rewardOracle",
          "type": "address"
        }
      ],
      "name": "setRewardOracle",
      "outputs": [],
      "payable": false,
      "stateMutability": "nonpayable",
      "type": "function"
    },
    {
      "constant": false,
      "inputs": [
        {
          "name": "_shopAddress",
          "type": "address"
        }
      ],
      "name": "addShop",
      "outputs": [],
      "payable": false,
      "stateMutability": "nonpayable",
      "type": "function"
    },
    {
      "constant": false,
      "inputs": [
        {
          "name": "_manufacturerAddress",
          "type": "address"
        }
      ],
      "name": "addManufacturer",
      "outputs": [],
      "payable": false,
      "stateMutability": "nonpayable",
      "type": "function"
    },
    {
      "constant": false,
      "inputs": [
        {
          "name": "_recyclerAddress",
          "type": "address"
        }
      ],
      "name": "addRecycler",
      "outputs": [],
      "payable": false,
      "stateMutability": "nonpayable",
      "type": "function"
    },
    {
      "constant": false,
      "inputs": [
        {
          "name": "metadataURI",
          "type": "string"
        }
      ],
      "name": "createProduct",
      "outputs": [],
      "payable": false,
      "stateMutability": "nonpayable",
      "type": "function"
    },
    {
      "constant": false,
      "inputs": [
        {
          "name": "_tokenID",
          "type": "uint256"
        },
        {
          "name": "_returnerId",
          "type": "address"
        }
      ],
      "name": "returnProduct",
      "outputs": [],
      "payable": false,
      "stateMutability": "nonpayable",
      "type": "function"
    },
    {
      "constant": false,
      "inputs": [
        {
          "name": "_tokenID",
          "type": "uint256"
        },
        {
          "name": "_recyclerId",
          "type": "address"
        }
      ],
      "name": "recycleProduct",
      "outputs": [],
      "payable": false,
      "stateMutability": "nonpayable",
      "type": "function"
    },
    {
      "constant": false,
      "inputs": [
        {
          "name": "_to",
          "type": "address"
        },
        {
          "name": "amount",
          "type": "uint256"
        }
      ],
      "name": "giveRewardToken",
      "outputs": [],
      "payable": false,
      "stateMutability": "nonpayable",
      "type": "function"
    },
    {
      "constant": true,
      "inputs": [
        {
          "name": "_addr",
          "type": "address"
        }
      ],
      "name": "getProductArrayLength",
      "outputs": [
        {
          "name": "",
          "type": "uint256"
        }
      ],
      "payable": false,
      "stateMutability": "view",
      "type": "function"
    }
  ],
  "bytecode": "0x6060604052341561000f57600080fd5b60405160608061182b83398101604052808051906020019091908051906020019091908051906020019091905050336000806101000a81548173ffffffffffffffffffffffffffffffffffffffff021916908373ffffffffffffffffffffffffffffffffffffffff16021790555082600360006101000a81548173ffffffffffffffffffffffffffffffffffffffff021916908373ffffffffffffffffffffffffffffffffffffffff16021790555081600460006101000a81548173ffffffffffffffffffffffffffffffffffffffff021916908373ffffffffffffffffffffffffffffffffffffffff16021790555080600560006101000a81548173ffffffffffffffffffffffffffffffffffffffff021916908373ffffffffffffffffffffffffffffffffffffffff1602179055505050506116d9806101526000396000f3006060604052600436106100e6576000357c0100000000000000000000000000000000000000000000000000000000900463ffffffff16806302ec06be146100eb578063357b992f146101485780633a39cc251461019d57806344301c13146101ea5780635ca07e6d1461022c5780635f8a5afa1461026e57806367001e33146102a757806378fbb04f146102e0578063798128ea146103195780638da5cb5b1461035b578063b83458b0146103b0578063bf351c9b1461040b578063e6d003a414610444578063f2fde38b14610499578063f7c618c1146104d2578063fc64094914610527575b600080fd5b34156100f657600080fd5b610146600480803590602001908201803590602001908080601f0160208091040260200160405190810160405280939291908181526020018383808284378201915050505050509190505061057d565b005b341561015357600080fd5b61015b61072a565b604051808273ffffffffffffffffffffffffffffffffffffffff1673ffffffffffffffffffffffffffffffffffffffff16815260200191505060405180910390f35b34156101a857600080fd5b6101d4600480803573ffffffffffffffffffffffffffffffffffffffff16906020019091905050610750565b6040518082815260200191505060405180910390f35b34156101f557600080fd5b61022a600480803590602001909190803573ffffffffffffffffffffffffffffffffffffffff1690602001909190505061079c565b005b341561023757600080fd5b61026c600480803573ffffffffffffffffffffffffffffffffffffffff16906020019091908035906020019091905050610b10565b005b341561027957600080fd5b6102a5600480803573ffffffffffffffffffffffffffffffffffffffff16906020019091905050610c4c565b005b34156102b257600080fd5b6102de600480803573ffffffffffffffffffffffffffffffffffffffff16906020019091905050610db6565b005b34156102eb57600080fd5b610317600480803573ffffffffffffffffffffffffffffffffffffffff16906020019091905050610f21565b005b341561032457600080fd5b610359600480803590602001909190803573ffffffffffffffffffffffffffffffffffffffff1690602001909190505061108c565b005b341561036657600080fd5b61036e611401565b604051808273ffffffffffffffffffffffffffffffffffffffff1673ffffffffffffffffffffffffffffffffffffffff16815260200191505060405180910390f35b34156103bb57600080fd5b6103e7600480803573ffffffffffffffffffffffffffffffffffffffff16906020019091905050611426565b604051808260038111156103f757fe5b60ff16815260200191505060405180910390f35b341561041657600080fd5b610442600480803573ffffffffffffffffffffffffffffffffffffffff16906020019091905050611446565b005b341561044f57600080fd5b61045761148a565b604051808273ffffffffffffffffffffffffffffffffffffffff1673ffffffffffffffffffffffffffffffffffffffff16815260200191505060405180910390f35b34156104a457600080fd5b6104d0600480803573ffffffffffffffffffffffffffffffffffffffff169060200190919050506114b0565b005b34156104dd57600080fd5b6104e5611605565b604051808273ffffffffffffffffffffffffffffffffffffffff1673ffffffffffffffffffffffffffffffffffffffff16815260200191505060405180910390f35b341561053257600080fd5b610567600480803573ffffffffffffffffffffffffffffffffffffffff1690602001909190803590602001909190505061162b565b6040518082815260200191505060405180910390f35b600160003373ffffffffffffffffffffffffffffffffffffffff1673ffffffffffffffffffffffffffffffffffffffff16815260200190815260200160002060009054906101000a900460ff1660038111156105d557fe5b600160038111156105e257fe5b1415156105ee57600080fd5b600460009054906101000a900473ffffffffffffffffffffffffffffffffffffffff1673ffffffffffffffffffffffffffffffffffffffff16633d02d0c933836040518363ffffffff167c0100000000000000000000000000000000000000000000000000000000028152600401808373ffffffffffffffffffffffffffffffffffffffff1673ffffffffffffffffffffffffffffffffffffffff16815260200180602001828103825283818151815260200191508051906020019080838360005b838110156106cb5780820151818401526020810190506106b0565b50505050905090810190601f1680156106f85780820380516001836020036101000a031916815260200191505b509350505050600060405180830381600087803b151561071757600080fd5b5af1151561072457600080fd5b50505050565b600560009054906101000a900473ffffffffffffffffffffffffffffffffffffffff1681565b6000600260008373ffffffffffffffffffffffffffffffffffffffff1673ffffffffffffffffffffffffffffffffffffffff168152602001908152602001600020805490509050919050565b600160003373ffffffffffffffffffffffffffffffffffffffff1673ffffffffffffffffffffffffffffffffffffffff16815260200190815260200160002060009054906101000a900460ff1660038111156107f457fe5b60038081111561080057fe5b14151561080c57600080fd5b60028081111561081857fe5b600460009054906101000a900473ffffffffffffffffffffffffffffffffffffffff1673ffffffffffffffffffffffffffffffffffffffff16639745cc3d846040518263ffffffff167c010000000000000000000000000000000000000000000000000000000002815260040180828152602001915050602060405180830381600087803b15156108a857600080fd5b5af115156108b557600080fd5b5050506040518051905060028111156108ca57fe5b141515156108d757600080fd5b600560009054906101000a900473ffffffffffffffffffffffffffffffffffffffff1673ffffffffffffffffffffffffffffffffffffffff1663fba20858838360006040518463ffffffff167c0100000000000000000000000000000000000000000000000000000000028152600401808481526020018373ffffffffffffffffffffffffffffffffffffffff1673ffffffffffffffffffffffffffffffffffffffff168152602001821515151581526020019350505050600060405180830381600087803b15156109a857600080fd5b5af115156109b557600080fd5b505050600460009054906101000a900473ffffffffffffffffffffffffffffffffffffffff1673ffffffffffffffffffffffffffffffffffffffff1663965ff5bc8360026040518363ffffffff167c010000000000000000000000000000000000000000000000000000000002815260040180838152602001826002811115610a3a57fe5b60ff16815260200192505050600060405180830381600087803b1515610a5f57600080fd5b5af11515610a6c57600080fd5b505050600260003373ffffffffffffffffffffffffffffffffffffffff1673ffffffffffffffffffffffffffffffffffffffff1681526020019081526020016000208054806001018281610ac0919061165c565b9160005260206000209001600084909190915055507fbed75ef18f2619bb89f97008572247a7826c504ed1ef2fb902ef3f41e85acc99826040518082815260200191505060405180910390a15050565b600560009054906101000a900473ffffffffffffffffffffffffffffffffffffffff1673ffffffffffffffffffffffffffffffffffffffff163373ffffffffffffffffffffffffffffffffffffffff16141515610b6c57600080fd5b600360009054906101000a900473ffffffffffffffffffffffffffffffffffffffff1673ffffffffffffffffffffffffffffffffffffffff166340c10f1983836040518363ffffffff167c0100000000000000000000000000000000000000000000000000000000028152600401808373ffffffffffffffffffffffffffffffffffffffff1673ffffffffffffffffffffffffffffffffffffffff16815260200182815260200192505050602060405180830381600087803b1515610c3057600080fd5b5af11515610c3d57600080fd5b50505060405180519050505050565b6000809054906101000a900473ffffffffffffffffffffffffffffffffffffffff1673ffffffffffffffffffffffffffffffffffffffff163373ffffffffffffffffffffffffffffffffffffffff16141515610ca757600080fd5b3373ffffffffffffffffffffffffffffffffffffffff168173ffffffffffffffffffffffffffffffffffffffff1614151515610ce257600080fd5b600160008273ffffffffffffffffffffffffffffffffffffffff1673ffffffffffffffffffffffffffffffffffffffff16815260200190815260200160002060009054906101000a900460ff166003811115610d3a57fe5b60006003811115610d4757fe5b141515610d5357600080fd5b60018060008373ffffffffffffffffffffffffffffffffffffffff1673ffffffffffffffffffffffffffffffffffffffff16815260200190815260200160002060006101000a81548160ff02191690836003811115610dae57fe5b021790555050565b6000809054906101000a900473ffffffffffffffffffffffffffffffffffffffff1673ffffffffffffffffffffffffffffffffffffffff163373ffffffffffffffffffffffffffffffffffffffff16141515610e1157600080fd5b3373ffffffffffffffffffffffffffffffffffffffff168173ffffffffffffffffffffffffffffffffffffffff1614151515610e4c57600080fd5b600160008273ffffffffffffffffffffffffffffffffffffffff1673ffffffffffffffffffffffffffffffffffffffff16815260200190815260200160002060009054906101000a900460ff166003811115610ea457fe5b60006003811115610eb157fe5b141515610ebd57600080fd5b6003600160008373ffffffffffffffffffffffffffffffffffffffff1673ffffffffffffffffffffffffffffffffffffffff16815260200190815260200160002060006101000a81548160ff02191690836003811115610f1957fe5b021790555050565b6000809054906101000a900473ffffffffffffffffffffffffffffffffffffffff1673ffffffffffffffffffffffffffffffffffffffff163373ffffffffffffffffffffffffffffffffffffffff16141515610f7c57600080fd5b3373ffffffffffffffffffffffffffffffffffffffff168173ffffffffffffffffffffffffffffffffffffffff1614151515610fb757600080fd5b600160008273ffffffffffffffffffffffffffffffffffffffff1673ffffffffffffffffffffffffffffffffffffffff16815260200190815260200160002060009054906101000a900460ff16600381111561100f57fe5b6000600381111561101c57fe5b14151561102857600080fd5b6002600160008373ffffffffffffffffffffffffffffffffffffffff1673ffffffffffffffffffffffffffffffffffffffff16815260200190815260200160002060006101000a81548160ff0219169083600381111561108457fe5b021790555050565b600160003373ffffffffffffffffffffffffffffffffffffffff1673ffffffffffffffffffffffffffffffffffffffff16815260200190815260200160002060009054906101000a900460ff1660038111156110e457fe5b600260038111156110f157fe5b1415156110fd57600080fd5b6000600281111561110a57fe5b600460009054906101000a900473ffffffffffffffffffffffffffffffffffffffff1673ffffffffffffffffffffffffffffffffffffffff16639745cc3d846040518263ffffffff167c010000000000000000000000000000000000000000000000000000000002815260040180828152602001915050602060405180830381600087803b151561119a57600080fd5b5af115156111a757600080fd5b5050506040518051905060028111156111bc57fe5b1415156111c857600080fd5b600460009054906101000a900473ffffffffffffffffffffffffffffffffffffffff1673ffffffffffffffffffffffffffffffffffffffff1663965ff5bc8360016040518363ffffffff167c01000000000000000000000000000000000000000000000000000000000281526004018083815260200182600281111561124a57fe5b60ff16815260200192505050600060405180830381600087803b151561126f57600080fd5b5af1151561127c57600080fd5b505050600560009054906101000a900473ffffffffffffffffffffffffffffffffffffffff1673ffffffffffffffffffffffffffffffffffffffff1663fba20858838360016040518463ffffffff167c0100000000000000000000000000000000000000000000000000000000028152600401808481526020018373ffffffffffffffffffffffffffffffffffffffff1673ffffffffffffffffffffffffffffffffffffffff168152602001821515151581526020019350505050600060405180830381600087803b151561135057600080fd5b5af1151561135d57600080fd5b505050600260003373ffffffffffffffffffffffffffffffffffffffff1673ffffffffffffffffffffffffffffffffffffffff16815260200190815260200160002080548060010182816113b1919061165c565b9160005260206000209001600084909190915055507f9f36b89c5ebc8406b4f45a859b1ed0da88104e433ab1346605e4dad81bafaba1826040518082815260200191505060405180910390a15050565b6000809054906101000a900473ffffffffffffffffffffffffffffffffffffffff1681565b60016020528060005260406000206000915054906101000a900460ff1681565b80600560006101000a81548173ffffffffffffffffffffffffffffffffffffffff021916908373ffffffffffffffffffffffffffffffffffffffff16021790555050565b600460009054906101000a900473ffffffffffffffffffffffffffffffffffffffff1681565b6000809054906101000a900473ffffffffffffffffffffffffffffffffffffffff1673ffffffffffffffffffffffffffffffffffffffff163373ffffffffffffffffffffffffffffffffffffffff1614151561150b57600080fd5b600073ffffffffffffffffffffffffffffffffffffffff168173ffffffffffffffffffffffffffffffffffffffff161415151561154757600080fd5b8073ffffffffffffffffffffffffffffffffffffffff166000809054906101000a900473ffffffffffffffffffffffffffffffffffffffff1673ffffffffffffffffffffffffffffffffffffffff167f8be0079c531659141344cd1fd0a4f28419497f9722a3daafe3b4186f6b6457e060405160405180910390a3806000806101000a81548173ffffffffffffffffffffffffffffffffffffffff021916908373ffffffffffffffffffffffffffffffffffffffff16021790555050565b600360009054906101000a900473ffffffffffffffffffffffffffffffffffffffff1681565b60026020528160005260406000208181548110151561164657fe5b9060005260206000209001600091509150505481565b815481835581811511611683578183600052602060002091820191016116829190611688565b5b505050565b6116aa91905b808211156116a657600081600090555060010161168e565b5090565b905600a165627a7a7230582023d03061fc9cf3c7f4ec288e0d092fa1d3ba5907cf67c1eb34e5b5d8002c681c0029",
  "source": "pragma solidity ^0.4.18;\nimport \"./EMineRewardToken.sol\";\nimport \"./EMineLifecycleToken.sol\";\nimport \"./RewardOracle.sol\";\nimport \"zeppelin-solidity/contracts/ownership/Ownable.sol\";\n\n\ncontract EMine is Ownable {\n\n    event ProductReturned(uint256 _tokenID);\n    event ProductRecycled (uint256 _tokenID);\n\n    enum  UserType { NotSet, Manufacturer, Shop, Recycler }\n    mapping(address => UserType) public userType;\n\n    mapping(address => uint256[]) public products;\n\n    EMineRewardToken public rewardToken;\n    EMineLifecycleToken public lifecycleToken;\n    RewardOracle public rewardOracle;\n\n    function setRewardOracle(RewardOracle _rewardOracle){\n        rewardOracle = _rewardOracle;\n    }\n\n    function EMine(EMineRewardToken _rewardToken, EMineLifecycleToken _lifecycleToken, RewardOracle _rewardOracle) public {\n        rewardToken = _rewardToken;\n        lifecycleToken = _lifecycleToken;\n        rewardOracle = _rewardOracle;\n    }\n\n    modifier onlyShop() {\n        require (UserType.Shop == userType[msg.sender]);\n        _;\n    }\n\n    modifier onlyManufacturer() {\n        require (UserType.Manufacturer == userType[msg.sender]);\n        _;\n    }\n\n    modifier onlyRecycler() {\n        require (UserType.Recycler == userType[msg.sender]);\n        _;\n    }\n\n\n    function addShop(address _shopAddress) public onlyOwner {\n        require(_shopAddress != msg.sender);\n        require (UserType.NotSet == userType[_shopAddress]);\n        userType[_shopAddress] = UserType.Shop;\n    }\n\n    function addManufacturer (address _manufacturerAddress) public onlyOwner {\n        require(_manufacturerAddress != msg.sender);\n        require (UserType.NotSet == userType[_manufacturerAddress]);\n        userType[_manufacturerAddress] = UserType.Manufacturer;\n    }\n\n    function addRecycler (address _recyclerAddress) public onlyOwner {\n        require(_recyclerAddress != msg.sender);\n        require (UserType.NotSet == userType[_recyclerAddress]);\n        userType[_recyclerAddress] = UserType.Recycler;\n    }\n\n    function createProduct (string metadataURI) public onlyManufacturer {\n        lifecycleToken.mintToken(msg.sender, metadataURI);\n    }\n\n    function returnProduct ( uint256 _tokenID, address _returnerId ) onlyShop {\n        require (lifecycleToken.tokenState(_tokenID) == EMineLifecycleToken.ProductState.Available);\n\n        lifecycleToken.setState(_tokenID, EMineLifecycleToken.ProductState.Returned );\n        rewardOracle.rewardUserByToken(_tokenID, _returnerId, true );\n        products[msg.sender].push(_tokenID);\n        ProductReturned(_tokenID);\n    }\n\n    function recycleProduct ( uint256 _tokenID, address _recyclerId ) onlyRecycler {\n        require (lifecycleToken.tokenState(_tokenID) != EMineLifecycleToken.ProductState.Recycled);\n\n        rewardOracle.rewardUserByToken(_tokenID, _recyclerId, false );\n        lifecycleToken.setState(_tokenID, EMineLifecycleToken.ProductState.Recycled );\n        products[msg.sender].push(_tokenID);\n        ProductRecycled(_tokenID);\n    }\n\n    function giveRewardToken (address _to, uint256  amount) public {\n        require(msg.sender == address(rewardOracle));\n        rewardToken.mint(_to, amount) ;\n    }\n\n    function getProductArrayLength (address _addr) public view returns (uint256){\n        return products[_addr].length;\n    }\n\n\n}",
  "sourcePath": "/home/orhun/e-mine2/contracts/EMine.sol",
  "compiler": {
    "name": "solc",
    "version": "0.4.21+commit.dfe3193c.Emscripten.clang"
  },
  "schemaVersion": "2.0.0",
  "updatedAt": "2018-04-28T19:53:50.278Z"
}