{
  "contractName": "EMineLifecycleToken",
  "abi": [
    {
      "constant": true,
      "inputs": [
        {
          "name": "_tokenId",
          "type": "uint256"
        }
      ],
      "name": "getApproved",
      "outputs": [
        {
          "name": "",
          "type": "address"
        }
      ],
      "payable": false,
      "stateMutability": "view",
      "type": "function"
    },
    {
      "constant": false,
      "inputs": [
        {
          "name": "_to",
          "type": "address"
        },
        {
          "name": "_tokenId",
          "type": "uint256"
        }
      ],
      "name": "approve",
      "outputs": [],
      "payable": false,
      "stateMutability": "nonpayable",
      "type": "function"
    },
    {
      "constant": false,
      "inputs": [
        {
          "name": "_from",
          "type": "address"
        },
        {
          "name": "_to",
          "type": "address"
        },
        {
          "name": "_tokenId",
          "type": "uint256"
        }
      ],
      "name": "transferFrom",
      "outputs": [],
      "payable": false,
      "stateMutability": "nonpayable",
      "type": "function"
    },
    {
      "constant": false,
      "inputs": [
        {
          "name": "_from",
          "type": "address"
        },
        {
          "name": "_to",
          "type": "address"
        },
        {
          "name": "_tokenId",
          "type": "uint256"
        }
      ],
      "name": "safeTransferFrom",
      "outputs": [],
      "payable": false,
      "stateMutability": "nonpayable",
      "type": "function"
    },
    {
      "constant": true,
      "inputs": [
        {
          "name": "_tokenId",
          "type": "uint256"
        }
      ],
      "name": "exists",
      "outputs": [
        {
          "name": "",
          "type": "bool"
        }
      ],
      "payable": false,
      "stateMutability": "view",
      "type": "function"
    },
    {
      "constant": true,
      "inputs": [
        {
          "name": "_tokenId",
          "type": "uint256"
        }
      ],
      "name": "ownerOf",
      "outputs": [
        {
          "name": "",
          "type": "address"
        }
      ],
      "payable": false,
      "stateMutability": "view",
      "type": "function"
    },
    {
      "constant": true,
      "inputs": [
        {
          "name": "_owner",
          "type": "address"
        }
      ],
      "name": "balanceOf",
      "outputs": [
        {
          "name": "",
          "type": "uint256"
        }
      ],
      "payable": false,
      "stateMutability": "view",
      "type": "function"
    },
    {
      "constant": true,
      "inputs": [],
      "name": "owner",
      "outputs": [
        {
          "name": "",
          "type": "address"
        }
      ],
      "payable": false,
      "stateMutability": "view",
      "type": "function"
    },
    {
      "constant": true,
      "inputs": [
        {
          "name": "",
          "type": "uint256"
        }
      ],
      "name": "tokenState",
      "outputs": [
        {
          "name": "",
          "type": "uint8"
        }
      ],
      "payable": false,
      "stateMutability": "view",
      "type": "function"
    },
    {
      "constant": false,
      "inputs": [
        {
          "name": "_to",
          "type": "address"
        },
        {
          "name": "_approved",
          "type": "bool"
        }
      ],
      "name": "setApprovalForAll",
      "outputs": [],
      "payable": false,
      "stateMutability": "nonpayable",
      "type": "function"
    },
    {
      "constant": false,
      "inputs": [
        {
          "name": "_from",
          "type": "address"
        },
        {
          "name": "_to",
          "type": "address"
        },
        {
          "name": "_tokenId",
          "type": "uint256"
        },
        {
          "name": "_data",
          "type": "bytes"
        }
      ],
      "name": "safeTransferFrom",
      "outputs": [],
      "payable": false,
      "stateMutability": "nonpayable",
      "type": "function"
    },
    {
      "constant": true,
      "inputs": [
        {
          "name": "_owner",
          "type": "address"
        },
        {
          "name": "_operator",
          "type": "address"
        }
      ],
      "name": "isApprovedForAll",
      "outputs": [
        {
          "name": "",
          "type": "bool"
        }
      ],
      "payable": false,
      "stateMutability": "view",
      "type": "function"
    },
    {
      "constant": false,
      "inputs": [
        {
          "name": "newOwner",
          "type": "address"
        }
      ],
      "name": "transferOwnership",
      "outputs": [],
      "payable": false,
      "stateMutability": "nonpayable",
      "type": "function"
    },
    {
      "anonymous": false,
      "inputs": [
        {
          "indexed": true,
          "name": "previousOwner",
          "type": "address"
        },
        {
          "indexed": true,
          "name": "newOwner",
          "type": "address"
        }
      ],
      "name": "OwnershipTransferred",
      "type": "event"
    },
    {
      "anonymous": false,
      "inputs": [
        {
          "indexed": true,
          "name": "_from",
          "type": "address"
        },
        {
          "indexed": true,
          "name": "_to",
          "type": "address"
        },
        {
          "indexed": false,
          "name": "_tokenId",
          "type": "uint256"
        }
      ],
      "name": "Transfer",
      "type": "event"
    },
    {
      "anonymous": false,
      "inputs": [
        {
          "indexed": true,
          "name": "_owner",
          "type": "address"
        },
        {
          "indexed": true,
          "name": "_approved",
          "type": "address"
        },
        {
          "indexed": false,
          "name": "_tokenId",
          "type": "uint256"
        }
      ],
      "name": "Approval",
      "type": "event"
    },
    {
      "anonymous": false,
      "inputs": [
        {
          "indexed": true,
          "name": "_owner",
          "type": "address"
        },
        {
          "indexed": true,
          "name": "_operator",
          "type": "address"
        },
        {
          "indexed": false,
          "name": "_approved",
          "type": "bool"
        }
      ],
      "name": "ApprovalForAll",
      "type": "event"
    },
    {
      "constant": true,
      "inputs": [],
      "name": "name",
      "outputs": [
        {
          "name": "",
          "type": "string"
        }
      ],
      "payable": false,
      "stateMutability": "view",
      "type": "function"
    },
    {
      "constant": false,
      "inputs": [
        {
          "name": "_to",
          "type": "address"
        },
        {
          "name": "tokenURI",
          "type": "string"
        }
      ],
      "name": "mintToken",
      "outputs": [],
      "payable": false,
      "stateMutability": "nonpayable",
      "type": "function"
    },
    {
      "constant": true,
      "inputs": [],
      "name": "symbol",
      "outputs": [
        {
          "name": "",
          "type": "string"
        }
      ],
      "payable": false,
      "stateMutability": "view",
      "type": "function"
    },
    {
      "constant": true,
      "inputs": [
        {
          "name": "_tokenId",
          "type": "uint256"
        }
      ],
      "name": "tokenURI",
      "outputs": [
        {
          "name": "",
          "type": "string"
        }
      ],
      "payable": false,
      "stateMutability": "view",
      "type": "function"
    },
    {
      "constant": true,
      "inputs": [
        {
          "name": "_owner",
          "type": "address"
        },
        {
          "name": "_index",
          "type": "uint256"
        }
      ],
      "name": "tokenOfOwnerByIndex",
      "outputs": [
        {
          "name": "",
          "type": "uint256"
        }
      ],
      "payable": false,
      "stateMutability": "view",
      "type": "function"
    },
    {
      "constant": true,
      "inputs": [],
      "name": "totalSupply",
      "outputs": [
        {
          "name": "",
          "type": "uint256"
        }
      ],
      "payable": false,
      "stateMutability": "view",
      "type": "function"
    },
    {
      "constant": true,
      "inputs": [
        {
          "name": "_index",
          "type": "uint256"
        }
      ],
      "name": "tokenByIndex",
      "outputs": [
        {
          "name": "",
          "type": "uint256"
        }
      ],
      "payable": false,
      "stateMutability": "view",
      "type": "function"
    },
    {
      "constant": false,
      "inputs": [
        {
          "name": "_tokenId",
          "type": "uint256"
        },
        {
          "name": "_state",
          "type": "uint8"
        }
      ],
      "name": "setState",
      "outputs": [],
      "payable": false,
      "stateMutability": "nonpayable",
      "type": "function"
    }
  ],
  "bytecode": "0x60606040526040805190810160405280601381526020017f454d696e654c6966656379636c65546f6b656e000000000000000000000000008152506005908051906020019062000051929190620000e7565b506040805190810160405280600481526020017f454d545300000000000000000000000000000000000000000000000000000000815250600690805190602001906200009f929190620000e7565b5033600460006101000a81548173ffffffffffffffffffffffffffffffffffffffff021916908373ffffffffffffffffffffffffffffffffffffffff16021790555062000196565b828054600181600116156101000203166002900490600052602060002090601f016020900481019282601f106200012a57805160ff19168380011785556200015b565b828001600101855582156200015b579182015b828111156200015a5782518255916020019190600101906200013d565b5b5090506200016a91906200016e565b5090565b6200019391905b808211156200018f57600081600090555060010162000175565b5090565b90565b61210480620001a66000396000f30060606040526004361061011d576000357c0100000000000000000000000000000000000000000000000000000000900463ffffffff16806306fdde0314610122578063081812fc146101b0578063095ea7b31461021357806318160ddd1461025557806323b872dd1461027e5780632f745c59146102df5780633d02d0c91461033557806342842e0e146103b15780634f558e79146104125780634f6ccce71461044d5780636352211e1461048457806370a08231146104e75780638da5cb5b1461053457806395d89b4114610589578063965ff5bc146106175780639745cc3d14610646578063a22cb4651461068b578063b88d4fde146106cf578063c87b56dd14610773578063e985e9c51461080f578063f2fde38b1461087f575b600080fd5b341561012d57600080fd5b6101356108b8565b6040518080602001828103825283818151815260200191508051906020019080838360005b8381101561017557808201518184015260208101905061015a565b50505050905090810190601f1680156101a25780820380516001836020036101000a031916815260200191505b509250505060405180910390f35b34156101bb57600080fd5b6101d16004808035906020019091905050610960565b604051808273ffffffffffffffffffffffffffffffffffffffff1673ffffffffffffffffffffffffffffffffffffffff16815260200191505060405180910390f35b341561021e57600080fd5b610253600480803573ffffffffffffffffffffffffffffffffffffffff1690602001909190803590602001909190505061099d565b005b341561026057600080fd5b610268610b63565b6040518082815260200191505060405180910390f35b341561028957600080fd5b6102dd600480803573ffffffffffffffffffffffffffffffffffffffff1690602001909190803573ffffffffffffffffffffffffffffffffffffffff16906020019091908035906020019091905050610b70565b005b34156102ea57600080fd5b61031f600480803573ffffffffffffffffffffffffffffffffffffffff16906020019091908035906020019091905050610c87565b6040518082815260200191505060405180910390f35b341561034057600080fd5b6103af600480803573ffffffffffffffffffffffffffffffffffffffff1690602001909190803590602001908201803590602001908080601f01602080910402602001604051908101604052809392919081815260200183838082843782019150505050505091905050610cff565b005b34156103bc57600080fd5b610410600480803573ffffffffffffffffffffffffffffffffffffffff1690602001909190803573ffffffffffffffffffffffffffffffffffffffff16906020019091908035906020019091905050610da2565b005b341561041d57600080fd5b6104336004808035906020019091905050610dda565b604051808215151515815260200191505060405180910390f35b341561045857600080fd5b61046e6004808035906020019091905050610e4b565b6040518082815260200191505060405180910390f35b341561048f57600080fd5b6104a56004808035906020019091905050610e84565b604051808273ffffffffffffffffffffffffffffffffffffffff1673ffffffffffffffffffffffffffffffffffffffff16815260200191505060405180910390f35b34156104f257600080fd5b61051e600480803573ffffffffffffffffffffffffffffffffffffffff16906020019091905050610f01565b6040518082815260200191505060405180910390f35b341561053f57600080fd5b610547610f85565b604051808273ffffffffffffffffffffffffffffffffffffffff1673ffffffffffffffffffffffffffffffffffffffff16815260200191505060405180910390f35b341561059457600080fd5b61059c610fab565b6040518080602001828103825283818151815260200191508051906020019080838360005b838110156105dc5780820151818401526020810190506105c1565b50505050905090810190601f1680156106095780820380516001836020036101000a031916815260200191505b509250505060405180910390f35b341561062257600080fd5b610644600480803590602001909190803560ff16906020019091905050611053565b005b341561065157600080fd5b61066760048080359060200190919050506110e7565b6040518082600281111561067757fe5b60ff16815260200191505060405180910390f35b341561069657600080fd5b6106cd600480803573ffffffffffffffffffffffffffffffffffffffff169060200190919080351515906020019091905050611107565b005b34156106da57600080fd5b610771600480803573ffffffffffffffffffffffffffffffffffffffff1690602001909190803573ffffffffffffffffffffffffffffffffffffffff1690602001909190803590602001909190803590602001908201803590602001908080601f01602080910402602001604051908101604052809392919081815260200183838082843782019150505050505091905050611243565b005b341561077e57600080fd5b6107946004808035906020019091905050611282565b6040518080602001828103825283818151815260200191508051906020019080838360005b838110156107d45780820151818401526020810190506107b9565b50505050905090810190601f1680156108015780820380516001836020036101000a031916815260200191505b509250505060405180910390f35b341561081a57600080fd5b610865600480803573ffffffffffffffffffffffffffffffffffffffff1690602001909190803573ffffffffffffffffffffffffffffffffffffffff16906020019091905050611351565b604051808215151515815260200191505060405180910390f35b341561088a57600080fd5b6108b6600480803573ffffffffffffffffffffffffffffffffffffffff169060200190919050506113e5565b005b6108c0611fc7565b60058054600181600116156101000203166002900480601f0160208091040260200160405190810160405280929190818152602001828054600181600116156101000203166002900480156109565780601f1061092b57610100808354040283529160200191610956565b820191906000526020600020905b81548152906001019060200180831161093957829003601f168201915b5050505050905090565b60006001600083815260200190815260200160002060009054906101000a900473ffffffffffffffffffffffffffffffffffffffff169050919050565b60006109a882610e84565b90508073ffffffffffffffffffffffffffffffffffffffff168373ffffffffffffffffffffffffffffffffffffffff16141515156109e557600080fd5b8073ffffffffffffffffffffffffffffffffffffffff163373ffffffffffffffffffffffffffffffffffffffff161480610a255750610a248133611351565b5b1515610a3057600080fd5b600073ffffffffffffffffffffffffffffffffffffffff16610a5183610960565b73ffffffffffffffffffffffffffffffffffffffff16141580610aa15750600073ffffffffffffffffffffffffffffffffffffffff168373ffffffffffffffffffffffffffffffffffffffff1614155b15610b5e57826001600084815260200190815260200160002060006101000a81548173ffffffffffffffffffffffffffffffffffffffff021916908373ffffffffffffffffffffffffffffffffffffffff1602179055508273ffffffffffffffffffffffffffffffffffffffff168173ffffffffffffffffffffffffffffffffffffffff167f8c5be1e5ebec7d5bd14f71427d1e84f3dd0314c0f7b2291e5b200ac8c7c3b925846040518082815260200191505060405180910390a35b505050565b6000600a80549050905090565b80610b7b338261153d565b1515610b8657600080fd5b600073ffffffffffffffffffffffffffffffffffffffff168473ffffffffffffffffffffffffffffffffffffffff1614151515610bc257600080fd5b600073ffffffffffffffffffffffffffffffffffffffff168373ffffffffffffffffffffffffffffffffffffffff1614151515610bfe57600080fd5b610c0884836115d2565b610c12848361173b565b610c1c8383611956565b8273ffffffffffffffffffffffffffffffffffffffff168473ffffffffffffffffffffffffffffffffffffffff167fddf252ad1be2c89b69c2b068fc378daa952ba7f163c4a11628f55a4df523b3ef846040518082815260200191505060405180910390a350505050565b6000610c9283610f01565b82101515610c9f57600080fd5b600760008473ffffffffffffffffffffffffffffffffffffffff1673ffffffffffffffffffffffffffffffffffffffff16815260200190815260200160002082815481101515610ceb57fe5b906000526020600020900154905092915050565b600460009054906101000a900473ffffffffffffffffffffffffffffffffffffffff1673ffffffffffffffffffffffffffffffffffffffff163373ffffffffffffffffffffffffffffffffffffffff16141515610d5b57600080fd5b610d6f826001610d69610b63565b01611a2a565b80600c6000610d7c610b63565b81526020019081526020016000209080519060200190610d9d929190611fdb565b505050565b80610dad338261153d565b1515610db857600080fd5b610dd48484846020604051908101604052806000815250611243565b50505050565b60008060008084815260200190815260200160002060009054906101000a900473ffffffffffffffffffffffffffffffffffffffff169050600073ffffffffffffffffffffffffffffffffffffffff168173ffffffffffffffffffffffffffffffffffffffff161415915050919050565b6000610e55610b63565b82101515610e6257600080fd5b600a82815481101515610e7157fe5b9060005260206000209001549050919050565b60008060008084815260200190815260200160002060009054906101000a900473ffffffffffffffffffffffffffffffffffffffff169050600073ffffffffffffffffffffffffffffffffffffffff168173ffffffffffffffffffffffffffffffffffffffff1614151515610ef857600080fd5b80915050919050565b60008073ffffffffffffffffffffffffffffffffffffffff168273ffffffffffffffffffffffffffffffffffffffff1614151515610f3e57600080fd5b600260008373ffffffffffffffffffffffffffffffffffffffff1673ffffffffffffffffffffffffffffffffffffffff168152602001908152602001600020549050919050565b600460009054906101000a900473ffffffffffffffffffffffffffffffffffffffff1681565b610fb3611fc7565b60068054600181600116156101000203166002900480601f0160208091040260200160405190810160405280929190818152602001828054600181600116156101000203166002900480156110495780601f1061101e57610100808354040283529160200191611049565b820191906000526020600020905b81548152906001019060200180831161102c57829003601f168201915b5050505050905090565b600460009054906101000a900473ffffffffffffffffffffffffffffffffffffffff1673ffffffffffffffffffffffffffffffffffffffff163373ffffffffffffffffffffffffffffffffffffffff161415156110af57600080fd5b806009600084815260200190815260200160002060006101000a81548160ff021916908360028111156110de57fe5b02179055505050565b60096020528060005260406000206000915054906101000a900460ff1681565b3373ffffffffffffffffffffffffffffffffffffffff168273ffffffffffffffffffffffffffffffffffffffff161415151561114257600080fd5b80600360003373ffffffffffffffffffffffffffffffffffffffff1673ffffffffffffffffffffffffffffffffffffffff16815260200190815260200160002060008473ffffffffffffffffffffffffffffffffffffffff1673ffffffffffffffffffffffffffffffffffffffff16815260200190815260200160002060006101000a81548160ff0219169083151502179055508173ffffffffffffffffffffffffffffffffffffffff163373ffffffffffffffffffffffffffffffffffffffff167f17307eab39ab6107e8899845ad3d59bd9653f200f220920489ca2b5937696c3183604051808215151515815260200191505060405180910390a35050565b8161124e338261153d565b151561125957600080fd5b611264858585610b70565b61127085858585611a7e565b151561127b57600080fd5b5050505050565b61128a611fc7565b61129382610dda565b151561129e57600080fd5b600c60008381526020019081526020016000208054600181600116156101000203166002900480601f0160208091040260200160405190810160405280929190818152602001828054600181600116156101000203166002900480156113455780601f1061131a57610100808354040283529160200191611345565b820191906000526020600020905b81548152906001019060200180831161132857829003601f168201915b50505050509050919050565b6000600360008473ffffffffffffffffffffffffffffffffffffffff1673ffffffffffffffffffffffffffffffffffffffff16815260200190815260200160002060008373ffffffffffffffffffffffffffffffffffffffff1673ffffffffffffffffffffffffffffffffffffffff16815260200190815260200160002060009054906101000a900460ff16905092915050565b600460009054906101000a900473ffffffffffffffffffffffffffffffffffffffff1673ffffffffffffffffffffffffffffffffffffffff163373ffffffffffffffffffffffffffffffffffffffff1614151561144157600080fd5b600073ffffffffffffffffffffffffffffffffffffffff168173ffffffffffffffffffffffffffffffffffffffff161415151561147d57600080fd5b8073ffffffffffffffffffffffffffffffffffffffff16600460009054906101000a900473ffffffffffffffffffffffffffffffffffffffff1673ffffffffffffffffffffffffffffffffffffffff167f8be0079c531659141344cd1fd0a4f28419497f9722a3daafe3b4186f6b6457e060405160405180910390a380600460006101000a81548173ffffffffffffffffffffffffffffffffffffffff021916908373ffffffffffffffffffffffffffffffffffffffff16021790555050565b60008061154983610e84565b90508073ffffffffffffffffffffffffffffffffffffffff168473ffffffffffffffffffffffffffffffffffffffff1614806115b857508373ffffffffffffffffffffffffffffffffffffffff166115a084610960565b73ffffffffffffffffffffffffffffffffffffffff16145b806115c957506115c88185611351565b5b91505092915050565b8173ffffffffffffffffffffffffffffffffffffffff166115f282610e84565b73ffffffffffffffffffffffffffffffffffffffff1614151561161457600080fd5b600073ffffffffffffffffffffffffffffffffffffffff166001600083815260200190815260200160002060009054906101000a900473ffffffffffffffffffffffffffffffffffffffff1673ffffffffffffffffffffffffffffffffffffffff161415156117375760006001600083815260200190815260200160002060006101000a81548173ffffffffffffffffffffffffffffffffffffffff021916908373ffffffffffffffffffffffffffffffffffffffff160217905550600073ffffffffffffffffffffffffffffffffffffffff168273ffffffffffffffffffffffffffffffffffffffff167f8c5be1e5ebec7d5bd14f71427d1e84f3dd0314c0f7b2291e5b200ac8c7c3b925836040518082815260200191505060405180910390a35b5050565b600080600061174a8585611c47565b600860008581526020019081526020016000205492506117b66001600760008873ffffffffffffffffffffffffffffffffffffffff1673ffffffffffffffffffffffffffffffffffffffff16815260200190815260200160002080549050611d7590919063ffffffff16565b9150600760008673ffffffffffffffffffffffffffffffffffffffff1673ffffffffffffffffffffffffffffffffffffffff1681526020019081526020016000208281548110151561180457fe5b906000526020600020900154905080600760008773ffffffffffffffffffffffffffffffffffffffff1673ffffffffffffffffffffffffffffffffffffffff1681526020019081526020016000208481548110151561185f57fe5b9060005260206000209001819055506000600760008773ffffffffffffffffffffffffffffffffffffffff1673ffffffffffffffffffffffffffffffffffffffff168152602001908152602001600020838154811015156118bc57fe5b906000526020600020900181905550600760008673ffffffffffffffffffffffffffffffffffffffff1673ffffffffffffffffffffffffffffffffffffffff16815260200190815260200160002080548091906001900361191d919061205b565b50600060086000868152602001908152602001600020819055508260086000838152602001908152602001600020819055505050505050565b60006119628383611d8e565b600760008473ffffffffffffffffffffffffffffffffffffffff1673ffffffffffffffffffffffffffffffffffffffff168152602001908152602001600020805490509050600760008473ffffffffffffffffffffffffffffffffffffffff1673ffffffffffffffffffffffffffffffffffffffff16815260200190815260200160002080548060010182816119f89190612087565b916000526020600020900160008490919091505550806008600084815260200190815260200160002081905550505050565b611a348282611ee6565b600a80549050600b600083815260200190815260200160002081905550600a8054806001018281611a659190612087565b9160005260206000209001600083909190915055505050565b600080611aa08573ffffffffffffffffffffffffffffffffffffffff16611f96565b1515611aaf5760019150611c3e565b8473ffffffffffffffffffffffffffffffffffffffff1663f0b9e5ba8786866040518463ffffffff167c0100000000000000000000000000000000000000000000000000000000028152600401808473ffffffffffffffffffffffffffffffffffffffff1673ffffffffffffffffffffffffffffffffffffffff16815260200183815260200180602001828103825283818151815260200191508051906020019080838360005b83811015611b71578082015181840152602081019050611b56565b50505050905090810190601f168015611b9e5780820380516001836020036101000a031916815260200191505b50945050505050602060405180830381600087803b1515611bbe57600080fd5b5af11515611bcb57600080fd5b50505060405180519050905063f0b9e5ba7c0100000000000000000000000000000000000000000000000000000000027bffffffffffffffffffffffffffffffffffffffffffffffffffffffff1916817bffffffffffffffffffffffffffffffffffffffffffffffffffffffff19161491505b50949350505050565b8173ffffffffffffffffffffffffffffffffffffffff16611c6782610e84565b73ffffffffffffffffffffffffffffffffffffffff16141515611c8957600080fd5b611cdc6001600260008573ffffffffffffffffffffffffffffffffffffffff1673ffffffffffffffffffffffffffffffffffffffff16815260200190815260200160002054611d7590919063ffffffff16565b600260008473ffffffffffffffffffffffffffffffffffffffff1673ffffffffffffffffffffffffffffffffffffffff16815260200190815260200160002081905550600080600083815260200190815260200160002060006101000a81548173ffffffffffffffffffffffffffffffffffffffff021916908373ffffffffffffffffffffffffffffffffffffffff1602179055505050565b6000828211151515611d8357fe5b818303905092915050565b600073ffffffffffffffffffffffffffffffffffffffff1660008083815260200190815260200160002060009054906101000a900473ffffffffffffffffffffffffffffffffffffffff1673ffffffffffffffffffffffffffffffffffffffff16141515611dfb57600080fd5b8160008083815260200190815260200160002060006101000a81548173ffffffffffffffffffffffffffffffffffffffff021916908373ffffffffffffffffffffffffffffffffffffffff160217905550611e9f6001600260008573ffffffffffffffffffffffffffffffffffffffff1673ffffffffffffffffffffffffffffffffffffffff16815260200190815260200160002054611fa990919063ffffffff16565b600260008473ffffffffffffffffffffffffffffffffffffffff1673ffffffffffffffffffffffffffffffffffffffff168152602001908152602001600020819055505050565b600073ffffffffffffffffffffffffffffffffffffffff168273ffffffffffffffffffffffffffffffffffffffff1614151515611f2257600080fd5b611f2c8282611956565b8173ffffffffffffffffffffffffffffffffffffffff16600073ffffffffffffffffffffffffffffffffffffffff167fddf252ad1be2c89b69c2b068fc378daa952ba7f163c4a11628f55a4df523b3ef836040518082815260200191505060405180910390a35050565b600080823b905060008111915050919050565b6000808284019050838110151515611fbd57fe5b8091505092915050565b602060405190810160405280600081525090565b828054600181600116156101000203166002900490600052602060002090601f016020900481019282601f1061201c57805160ff191683800117855561204a565b8280016001018555821561204a579182015b8281111561204957825182559160200191906001019061202e565b5b50905061205791906120b3565b5090565b8154818355818115116120825781836000526020600020918201910161208191906120b3565b5b505050565b8154818355818115116120ae578183600052602060002091820191016120ad91906120b3565b5b505050565b6120d591905b808211156120d15760008160009055506001016120b9565b5090565b905600a165627a7a7230582092e26c1bc39aa29595b8ed0fef89bd701438d116f96b91a8fd29553844d6edc40029",
  "source": "pragma solidity ^0.4.18;\n\nimport \"zeppelin-solidity/contracts/token/ERC721/ERC721.sol\";\nimport \"zeppelin-solidity/contracts/token/ERC721/DeprecatedERC721.sol\";\nimport \"zeppelin-solidity/contracts/token/ERC721/ERC721BasicToken.sol\";\nimport \"zeppelin-solidity/contracts/ownership/Ownable.sol\";\n\ncontract EMineLifecycleToken is ERC721, ERC721BasicToken, Ownable {\n    // Token name\n    string internal name_ = \"EMineLifecycleToken\" ;\n\n    // Token symbol\n    string internal symbol_ = \"EMTS\";\n\n    // Mapping from owner to list of owned token IDs\n    mapping (address => uint256[]) internal ownedTokens;\n\n    // Mapping from token ID to index of the owner tokens list\n    mapping(uint256 => uint256) internal ownedTokensIndex;\n\n    //State variable\n    enum  ProductState { Available, Returned, Recycled }\n    mapping(uint256 => ProductState) public tokenState;\n\n    // Array with all token ids, used for enumeration\n    uint256[] internal allTokens;\n\n    // Mapping from token id to position in the allTokens array\n    mapping(uint256 => uint256) internal allTokensIndex;\n\n    // Optional mapping for token URIs\n    mapping(uint256 => string) internal tokenURIs;\n\n    /**\n    * @dev Gets the token name\n    * @return string representing the token name\n    */\n    function name() public view returns (string) {\n        return name_;\n    }\n\n    function mintToken(address _to, string tokenURI) public onlyOwner{\n        _mint(_to, totalSupply() +1);\n        tokenURIs[totalSupply()] = tokenURI;\n    }\n\n    /**\n    * @dev Gets the token symbol\n    * @return string representing the token symbol\n    */\n    function symbol() public view returns (string) {\n        return symbol_;\n    }\n\n    /**\n    * @dev Returns an URI for a given token ID\n    * @dev Throws if the token ID does not exist. May return an empty string.\n    * @param _tokenId uint256 ID of the token to query\n    */\n    function tokenURI(uint256 _tokenId) public view returns (string) {\n        require(exists(_tokenId));\n        return tokenURIs[_tokenId];\n    }\n\n    /**\n    * @dev Gets the token ID at a given index of the tokens list of the requested owner\n    * @param _owner address owning the tokens list to be accessed\n    * @param _index uint256 representing the index to be accessed of the requested tokens list\n    * @return uint256 token ID at the given index of the tokens list owned by the requested address\n    */\n    function tokenOfOwnerByIndex(address _owner, uint256 _index) public view returns (uint256) {\n        require(_index < balanceOf(_owner));\n        return ownedTokens[_owner][_index];\n    }\n\n    /**\n    * @dev Gets the total amount of tokens stored by the contract\n    * @return uint256 representing the total amount of tokens\n    */\n    function totalSupply() public view returns (uint256) {\n        return allTokens.length;\n    }\n\n    /**\n    * @dev Gets the token ID at a given index of all the tokens in this contract\n    * @dev Reverts if the index is greater or equal to the total number of tokens\n    * @param _index uint256 representing the index to be accessed of the tokens list\n    * @return uint256 token ID at the given index of the tokens list\n    */\n    function tokenByIndex(uint256 _index) public view returns (uint256) {\n        require(_index < totalSupply());\n        return allTokens[_index];\n    }\n\n    /**\n    * @dev Internal function to set the token URI for a given token\n    * @dev Reverts if the token ID does not exist\n    * @param _tokenId uint256 ID of the token to set its URI\n    * @param _uri string URI to assign\n    */\n    function _setTokenURI(uint256 _tokenId, string _uri) internal {\n        require(exists(_tokenId));\n        tokenURIs[_tokenId] = _uri;\n    }\n\n    /**\n    * @dev Internal function to add a token ID to the list of a given address\n    * @param _to address representing the new owner of the given token ID\n    * @param _tokenId uint256 ID of the token to be added to the tokens list of the given address\n    */\n    function addTokenTo(address _to, uint256 _tokenId) internal {\n        super.addTokenTo(_to, _tokenId);\n        uint256 length = ownedTokens[_to].length;\n        ownedTokens[_to].push(_tokenId);\n        ownedTokensIndex[_tokenId] = length;\n    }\n\n    /**\n    * @dev Internal function to remove a token ID from the list of a given address\n    * @param _from address representing the previous owner of the given token ID\n    * @param _tokenId uint256 ID of the token to be removed from the tokens list of the given address\n    */\n    function removeTokenFrom(address _from, uint256 _tokenId) internal {\n        super.removeTokenFrom(_from, _tokenId);\n\n        uint256 tokenIndex = ownedTokensIndex[_tokenId];\n        uint256 lastTokenIndex = ownedTokens[_from].length.sub(1);\n        uint256 lastToken = ownedTokens[_from][lastTokenIndex];\n\n        ownedTokens[_from][tokenIndex] = lastToken;\n        ownedTokens[_from][lastTokenIndex] = 0;\n        // Note that this will handle single-element arrays. In that case, both tokenIndex and lastTokenIndex are going to\n        // be zero. Then we can make sure that we will remove _tokenId from the ownedTokens list since we are first swapping\n        // the lastToken to the first position, and then dropping the element placed in the last position of the list\n\n        ownedTokens[_from].length--;\n        ownedTokensIndex[_tokenId] = 0;\n        ownedTokensIndex[lastToken] = tokenIndex;\n    }\n\n    /**\n    * @dev Internal function to mint a new token\n    * @dev Reverts if the given token ID already exists\n    * @param _to address the beneficiary that will own the minted token\n    * @param _tokenId uint256 ID of the token to be minted by the msg.sender\n    */\n    function _mint(address _to, uint256 _tokenId) internal {\n        super._mint(_to, _tokenId);\n\n        allTokensIndex[_tokenId] = allTokens.length;\n        allTokens.push(_tokenId);\n    }\n\n    /**\n    * @dev Internal function to burn a specific token\n    * @dev Reverts if the token does not exist\n    * @param _owner owner of the token to burn\n    * @param _tokenId uint256 ID of the token being burned by the msg.sender\n    */\n    function _burn(address _owner, uint256 _tokenId) internal {\n        super._burn(_owner, _tokenId);\n\n        // Clear metadata (if any)\n        if (bytes(tokenURIs[_tokenId]).length != 0) {\n            delete tokenURIs[_tokenId];\n        }\n\n        // Reorg all tokens array\n        uint256 tokenIndex = allTokensIndex[_tokenId];\n        uint256 lastTokenIndex = allTokens.length.sub(1);\n        uint256 lastToken = allTokens[lastTokenIndex];\n\n        allTokens[tokenIndex] = lastToken;\n        allTokens[lastTokenIndex] = 0;\n\n        allTokens.length--;\n        allTokensIndex[_tokenId] = 0;\n        allTokensIndex[lastToken] = tokenIndex;\n    }\n\n\n    function setState( uint256 _tokenId, ProductState _state ) onlyOwner {\n        tokenState[_tokenId] = _state;\n    }\n}\n",
  "sourcePath": "/home/orhun/e-mine2/contracts/EMineLifecycleToken.sol",
  "compiler": {
    "name": "solc",
    "version": "0.4.21+commit.dfe3193c.Emscripten.clang"
  },
  "schemaVersion": "2.0.0",
  "updatedAt": "2018-04-28T19:53:50.292Z"
}