{
  "contractName": "RewardOracle",
  "abi": [
    {
      "constant": true,
      "inputs": [],
      "name": "EMineContract",
      "outputs": [
        {
          "name": "",
          "type": "address"
        }
      ],
      "payable": false,
      "stateMutability": "view",
      "type": "function"
    },
    {
      "constant": true,
      "inputs": [
        {
          "name": "",
          "type": "address"
        },
        {
          "name": "",
          "type": "uint256"
        }
      ],
      "name": "returnerTokens",
      "outputs": [
        {
          "name": "",
          "type": "uint256"
        }
      ],
      "payable": false,
      "stateMutability": "view",
      "type": "function"
    },
    {
      "constant": true,
      "inputs": [],
      "name": "owner",
      "outputs": [
        {
          "name": "",
          "type": "address"
        }
      ],
      "payable": false,
      "stateMutability": "view",
      "type": "function"
    },
    {
      "constant": true,
      "inputs": [
        {
          "name": "",
          "type": "uint256"
        }
      ],
      "name": "recyclerAddress",
      "outputs": [
        {
          "name": "",
          "type": "address"
        }
      ],
      "payable": false,
      "stateMutability": "view",
      "type": "function"
    },
    {
      "constant": true,
      "inputs": [
        {
          "name": "",
          "type": "uint256"
        }
      ],
      "name": "returnerAddress",
      "outputs": [
        {
          "name": "",
          "type": "address"
        }
      ],
      "payable": false,
      "stateMutability": "view",
      "type": "function"
    },
    {
      "constant": true,
      "inputs": [
        {
          "name": "",
          "type": "bytes32"
        }
      ],
      "name": "oracleIds",
      "outputs": [
        {
          "name": "",
          "type": "uint256"
        }
      ],
      "payable": false,
      "stateMutability": "view",
      "type": "function"
    },
    {
      "constant": true,
      "inputs": [
        {
          "name": "",
          "type": "address"
        },
        {
          "name": "",
          "type": "uint256"
        }
      ],
      "name": "recyclerTokens",
      "outputs": [
        {
          "name": "",
          "type": "uint256"
        }
      ],
      "payable": false,
      "stateMutability": "view",
      "type": "function"
    },
    {
      "constant": false,
      "inputs": [
        {
          "name": "newOwner",
          "type": "address"
        }
      ],
      "name": "transferOwnership",
      "outputs": [],
      "payable": false,
      "stateMutability": "nonpayable",
      "type": "function"
    },
    {
      "anonymous": false,
      "inputs": [
        {
          "indexed": false,
          "name": "description",
          "type": "string"
        }
      ],
      "name": "LogNewOraclizeQuery",
      "type": "event"
    },
    {
      "anonymous": false,
      "inputs": [
        {
          "indexed": false,
          "name": "rewardValue",
          "type": "string"
        }
      ],
      "name": "NewRewardIssued",
      "type": "event"
    },
    {
      "anonymous": false,
      "inputs": [
        {
          "indexed": false,
          "name": "value",
          "type": "uint256"
        }
      ],
      "name": "OracleFunded",
      "type": "event"
    },
    {
      "anonymous": false,
      "inputs": [
        {
          "indexed": true,
          "name": "previousOwner",
          "type": "address"
        },
        {
          "indexed": true,
          "name": "newOwner",
          "type": "address"
        }
      ],
      "name": "OwnershipTransferred",
      "type": "event"
    },
    {
      "constant": false,
      "inputs": [
        {
          "name": "_tokenId",
          "type": "uint256"
        },
        {
          "name": "_rewardAddress",
          "type": "address"
        },
        {
          "name": "isReturn",
          "type": "bool"
        }
      ],
      "name": "rewardUserByToken",
      "outputs": [],
      "payable": true,
      "stateMutability": "payable",
      "type": "function"
    },
    {
      "constant": false,
      "inputs": [
        {
          "name": "myid",
          "type": "bytes32"
        },
        {
          "name": "result",
          "type": "string"
        }
      ],
      "name": "__callback",
      "outputs": [],
      "payable": false,
      "stateMutability": "nonpayable",
      "type": "function"
    },
    {
      "constant": false,
      "inputs": [
        {
          "name": "myid",
          "type": "bytes32"
        },
        {
          "name": "result",
          "type": "string"
        },
        {
          "name": "proof",
          "type": "bytes"
        }
      ],
      "name": "__callback",
      "outputs": [],
      "payable": false,
      "stateMutability": "nonpayable",
      "type": "function"
    },
    {
      "constant": false,
      "inputs": [
        {
          "name": "_EMineContract",
          "type": "address"
        }
      ],
      "name": "setEMineContract",
      "outputs": [],
      "payable": false,
      "stateMutability": "nonpayable",
      "type": "function"
    },
    {
      "constant": false,
      "inputs": [],
      "name": "fundOracle",
      "outputs": [],
      "payable": true,
      "stateMutability": "payable",
      "type": "function"
    },
    {
      "constant": true,
      "inputs": [
        {
          "name": "_addr",
          "type": "address"
        }
      ],
      "name": "getRecyclerArrayLength",
      "outputs": [
        {
          "name": "",
          "type": "uint256"
        }
      ],
      "payable": false,
      "stateMutability": "view",
      "type": "function"
    },
    {
      "constant": true,
      "inputs": [
        {
          "name": "_addr",
          "type": "address"
        }
      ],
      "name": "getReturnerArrayLength",
      "outputs": [
        {
          "name": "",
          "type": "uint256"
        }
      ],
      "payable": false,
      "stateMutability": "view",
      "type": "function"
    }
  ],
  "bytecode": "0x606060405233600560006101000a81548173ffffffffffffffffffffffffffffffffffffffff021916908373ffffffffffffffffffffffffffffffffffffffff160217905550611ff8806100546000396000f3006060604052600436106100db576000357c0100000000000000000000000000000000000000000000000000000000900463ffffffff1680631e12f727146100e057806327dc297e146100ea57806338bbfa50146101545780633bdabdba146102015780635a76175d1461024e5780638cc130a9146102875780638d87caf7146102dc5780638da5cb5b14610332578063948b355c1461038757806396629123146103ea578063a392ccd314610437578063a489000a1461049a578063d7e13701146104d5578063f2fde38b1461052b578063fba2085814610564575b600080fd5b6100e86105a6565b005b34156100f557600080fd5b61015260048080356000191690602001909190803590602001908201803590602001908080601f016020809104026020016040519081016040528093929190818152602001838380828437820191505050505050919050506105df565b005b341561015f57600080fd5b6101ff60048080356000191690602001909190803590602001908201803590602001908080601f0160208091040260200160405190810160405280939291908181526020018383808284378201915050505050509190803590602001908201803590602001908080601f01602080910402602001604051908101604052809392919081815260200183838082843782019150505050505091905050610861565b005b341561020c57600080fd5b610238600480803573ffffffffffffffffffffffffffffffffffffffff16906020019091905050610866565b6040518082815260200191505060405180910390f35b341561025957600080fd5b610285600480803573ffffffffffffffffffffffffffffffffffffffff169060200190919050506108b2565b005b341561029257600080fd5b61029a610952565b604051808273ffffffffffffffffffffffffffffffffffffffff1673ffffffffffffffffffffffffffffffffffffffff16815260200191505060405180910390f35b34156102e757600080fd5b61031c600480803573ffffffffffffffffffffffffffffffffffffffff16906020019091908035906020019091905050610978565b6040518082815260200191505060405180910390f35b341561033d57600080fd5b6103456109a9565b604051808273ffffffffffffffffffffffffffffffffffffffff1673ffffffffffffffffffffffffffffffffffffffff16815260200191505060405180910390f35b341561039257600080fd5b6103a860048080359060200190919050506109cf565b604051808273ffffffffffffffffffffffffffffffffffffffff1673ffffffffffffffffffffffffffffffffffffffff16815260200191505060405180910390f35b34156103f557600080fd5b610421600480803573ffffffffffffffffffffffffffffffffffffffff16906020019091905050610a02565b6040518082815260200191505060405180910390f35b341561044257600080fd5b6104586004808035906020019091905050610a4e565b604051808273ffffffffffffffffffffffffffffffffffffffff1673ffffffffffffffffffffffffffffffffffffffff16815260200191505060405180910390f35b34156104a557600080fd5b6104bf600480803560001916906020019091905050610a81565b6040518082815260200191505060405180910390f35b34156104e057600080fd5b610515600480803573ffffffffffffffffffffffffffffffffffffffff16906020019091908035906020019091905050610a99565b6040518082815260200191505060405180910390f35b341561053657600080fd5b610562600480803573ffffffffffffffffffffffffffffffffffffffff16906020019091905050610aca565b005b6105a4600480803590602001909190803573ffffffffffffffffffffffffffffffffffffffff169060200190919080351515906020019091905050610c22565b005b7fa437c28b5a3d59056895d8e005229a2dfaecf430514ddc3079be08266eb3304b346040518082815260200191505060405180910390a1565b60006105e9610f26565b73ffffffffffffffffffffffffffffffffffffffff163373ffffffffffffffffffffffffffffffffffffffff1614151561062257600080fd5b6009600060076000866000191660001916815260200190815260200160002054815260200190815260200160002060009054906101000a900473ffffffffffffffffffffffffffffffffffffffff16905060008173ffffffffffffffffffffffffffffffffffffffff1614156106e4576008600060076000866000191660001916815260200190815260200160002054815260200190815260200160002060009054906101000a900473ffffffffffffffffffffffffffffffffffffffff1690505b600660009054906101000a900473ffffffffffffffffffffffffffffffffffffffff1673ffffffffffffffffffffffffffffffffffffffff16635ca07e6d8261072c85611215565b6040518363ffffffff167c0100000000000000000000000000000000000000000000000000000000028152600401808373ffffffffffffffffffffffffffffffffffffffff1673ffffffffffffffffffffffffffffffffffffffff16815260200182815260200192505050600060405180830381600087803b15156107b057600080fd5b5af115156107bd57600080fd5b5050507fa0ea318b7c91f27f988a10c6c8b8f25113f839fc0b760a574f107f6a8f565855826040518080602001828103825283818151815260200191508051906020019080838360005b83811015610822578082015181840152602081019050610807565b50505050905090810190601f16801561084f5780820380516001836020036101000a031916815260200191505b509250505060405180910390a1505050565b505050565b6000600a60008373ffffffffffffffffffffffffffffffffffffffff1673ffffffffffffffffffffffffffffffffffffffff168152602001908152602001600020805490509050919050565b600560009054906101000a900473ffffffffffffffffffffffffffffffffffffffff1673ffffffffffffffffffffffffffffffffffffffff163373ffffffffffffffffffffffffffffffffffffffff1614151561090e57600080fd5b80600660006101000a81548173ffffffffffffffffffffffffffffffffffffffff021916908373ffffffffffffffffffffffffffffffffffffffff16021790555050565b600660009054906101000a900473ffffffffffffffffffffffffffffffffffffffff1681565b600b6020528160005260406000208181548110151561099357fe5b9060005260206000209001600091509150505481565b600560009054906101000a900473ffffffffffffffffffffffffffffffffffffffff1681565b60096020528060005260406000206000915054906101000a900473ffffffffffffffffffffffffffffffffffffffff1681565b6000600b60008373ffffffffffffffffffffffffffffffffffffffff1673ffffffffffffffffffffffffffffffffffffffff168152602001908152602001600020805490509050919050565b60086020528060005260406000206000915054906101000a900473ffffffffffffffffffffffffffffffffffffffff1681565b60076020528060005260406000206000915090505481565b600a60205281600052604060002081815481101515610ab457fe5b9060005260206000209001600091509150505481565b600560009054906101000a900473ffffffffffffffffffffffffffffffffffffffff1673ffffffffffffffffffffffffffffffffffffffff163373ffffffffffffffffffffffffffffffffffffffff16141515610b2657600080fd5b600073ffffffffffffffffffffffffffffffffffffffff168173ffffffffffffffffffffffffffffffffffffffff1614151515610b6257600080fd5b8073ffffffffffffffffffffffffffffffffffffffff16600560009054906101000a900473ffffffffffffffffffffffffffffffffffffffff1673ffffffffffffffffffffffffffffffffffffffff167f8be0079c531659141344cd1fd0a4f28419497f9722a3daafe3b4186f6b6457e060405160405180910390a380600560006101000a81548173ffffffffffffffffffffffffffffffffffffffff021916908373ffffffffffffffffffffffffffffffffffffffff16021790555050565b6000600660009054906101000a900473ffffffffffffffffffffffffffffffffffffffff1673ffffffffffffffffffffffffffffffffffffffff163373ffffffffffffffffffffffffffffffffffffffff16141515610c8057600080fd5b7f621c2856e3b87f81235f8ac8a22bbb40a0142961960710d00b2b6c380902b57e6040518080602001828103825260358152602001807f4f7261636c697a65207175657279207761732073656e742c207374616e64696e81526020017f6720627920666f722074686520616e737765722e2e000000000000000000000081525060400191505060405180910390a1610d826040805190810160405280600c81526020017f576f6c6672616d416c70686100000000000000000000000000000000000000008152506040805190810160405280601f81526020017f72616e646f6d206e756d626572206265747765656e203120616e642031303000815250611229565b905083600760008360001916600019168152602001908152602001600020819055508115610e6757826008600086815260200190815260200160002060006101000a81548173ffffffffffffffffffffffffffffffffffffffff021916908373ffffffffffffffffffffffffffffffffffffffff160217905550600b60008473ffffffffffffffffffffffffffffffffffffffff1673ffffffffffffffffffffffffffffffffffffffff1681526020019081526020016000208054806001018281610e4d9190611ee7565b916000526020600020900160008690919091505550610f20565b826009600086815260200190815260200160002060006101000a81548173ffffffffffffffffffffffffffffffffffffffff021916908373ffffffffffffffffffffffffffffffffffffffff160217905550600a60008473ffffffffffffffffffffffffffffffffffffffff1673ffffffffffffffffffffffffffffffffffffffff1681526020019081526020016000208054806001018281610f0a9190611ee7565b9160005260206000209001600086909190915055505b50505050565b6000806000809054906101000a900473ffffffffffffffffffffffffffffffffffffffff1673ffffffffffffffffffffffffffffffffffffffff161480610f9657506000610f946000809054906101000a900473ffffffffffffffffffffffffffffffffffffffff16611737565b145b15610fa757610fa56000611742565b505b6000809054906101000a900473ffffffffffffffffffffffffffffffffffffffff1673ffffffffffffffffffffffffffffffffffffffff166338cc48316040518163ffffffff167c0100000000000000000000000000000000000000000000000000000000028152600401602060405180830381600087803b151561102b57600080fd5b5af1151561103857600080fd5b5050506040518051905073ffffffffffffffffffffffffffffffffffffffff16600160009054906101000a900473ffffffffffffffffffffffffffffffffffffffff1673ffffffffffffffffffffffffffffffffffffffff16141515611174576000809054906101000a900473ffffffffffffffffffffffffffffffffffffffff1673ffffffffffffffffffffffffffffffffffffffff166338cc48316040518163ffffffff167c0100000000000000000000000000000000000000000000000000000000028152600401602060405180830381600087803b151561111c57600080fd5b5af1151561112957600080fd5b50505060405180519050600160006101000a81548173ffffffffffffffffffffffffffffffffffffffff021916908373ffffffffffffffffffffffffffffffffffffffff1602179055505b600160009054906101000a900473ffffffffffffffffffffffffffffffffffffffff1673ffffffffffffffffffffffffffffffffffffffff1663c281d19e6040518163ffffffff167c0100000000000000000000000000000000000000000000000000000000028152600401602060405180830381600087803b15156111f957600080fd5b5af1151561120657600080fd5b50505060405180519050905090565b6000611222826000611bd3565b9050919050565b60008060008060009054906101000a900473ffffffffffffffffffffffffffffffffffffffff1673ffffffffffffffffffffffffffffffffffffffff16148061129b575060006112996000809054906101000a900473ffffffffffffffffffffffffffffffffffffffff16611737565b145b156112ac576112aa6000611742565b505b6000809054906101000a900473ffffffffffffffffffffffffffffffffffffffff1673ffffffffffffffffffffffffffffffffffffffff166338cc48316040518163ffffffff167c0100000000000000000000000000000000000000000000000000000000028152600401602060405180830381600087803b151561133057600080fd5b5af1151561133d57600080fd5b5050506040518051905073ffffffffffffffffffffffffffffffffffffffff16600160009054906101000a900473ffffffffffffffffffffffffffffffffffffffff1673ffffffffffffffffffffffffffffffffffffffff16141515611479576000809054906101000a900473ffffffffffffffffffffffffffffffffffffffff1673ffffffffffffffffffffffffffffffffffffffff166338cc48316040518163ffffffff167c0100000000000000000000000000000000000000000000000000000000028152600401602060405180830381600087803b151561142157600080fd5b5af1151561142e57600080fd5b50505060405180519050600160006101000a81548173ffffffffffffffffffffffffffffffffffffffff021916908373ffffffffffffffffffffffffffffffffffffffff1602179055505b600160009054906101000a900473ffffffffffffffffffffffffffffffffffffffff1673ffffffffffffffffffffffffffffffffffffffff1663524f3889856040518263ffffffff167c01000000000000000000000000000000000000000000000000000000000281526004018080602001828103825283818151815260200191508051906020019080838360005b83811015611523578082015181840152602081019050611508565b50505050905090810190601f1680156115505780820380516001836020036101000a031916815260200191505b5092505050602060405180830381600087803b151561156e57600080fd5b5af1151561157b57600080fd5b50505060405180519050905062030d403a02670de0b6b3a7640000018111156115aa5760006001029150611730565b600160009054906101000a900473ffffffffffffffffffffffffffffffffffffffff1673ffffffffffffffffffffffffffffffffffffffff1663adf59f9982600087876040518563ffffffff167c0100000000000000000000000000000000000000000000000000000000028152600401808481526020018060200180602001838103835285818151815260200191508051906020019080838360005b83811015611662578082015181840152602081019050611647565b50505050905090810190601f16801561168f5780820380516001836020036101000a031916815260200191505b50838103825284818151815260200191508051906020019080838360005b838110156116c85780820151818401526020810190506116ad565b50505050905090810190601f1680156116f55780820380516001836020036101000a031916815260200191505b50955050505050506020604051808303818588803b151561171557600080fd5b5af1151561172257600080fd5b505050506040518051905091505b5092915050565b6000813b9050919050565b600080611762731d3b2638a7cc9f2cb3d298a3da7a90b67e5506ed611737565b111561180357731d3b2638a7cc9f2cb3d298a3da7a90b67e5506ed6000806101000a81548173ffffffffffffffffffffffffffffffffffffffff021916908373ffffffffffffffffffffffffffffffffffffffff1602179055506117fa6040805190810160405280600b81526020017f6574685f6d61696e6e6574000000000000000000000000000000000000000000815250611ecd565b60019050611bce565b600061182273c03a2615d5efaf5f49f60b7bb6583eaec212fdf1611737565b11156118c35773c03a2615d5efaf5f49f60b7bb6583eaec212fdf16000806101000a81548173ffffffffffffffffffffffffffffffffffffffff021916908373ffffffffffffffffffffffffffffffffffffffff1602179055506118ba6040805190810160405280600c81526020017f6574685f726f707374656e330000000000000000000000000000000000000000815250611ecd565b60019050611bce565b60006118e273b7a07bcf2ba2f2703b24c0691b5278999c59ac7e611737565b11156119835773b7a07bcf2ba2f2703b24c0691b5278999c59ac7e6000806101000a81548173ffffffffffffffffffffffffffffffffffffffff021916908373ffffffffffffffffffffffffffffffffffffffff16021790555061197a6040805190810160405280600981526020017f6574685f6b6f76616e0000000000000000000000000000000000000000000000815250611ecd565b60019050611bce565b60006119a273146500cfd35b22e4a392fe0adc06de1a1368ed48611737565b1115611a435773146500cfd35b22e4a392fe0adc06de1a1368ed486000806101000a81548173ffffffffffffffffffffffffffffffffffffffff021916908373ffffffffffffffffffffffffffffffffffffffff160217905550611a3a6040805190810160405280600b81526020017f6574685f72696e6b656279000000000000000000000000000000000000000000815250611ecd565b60019050611bce565b6000611a62736f485c8bf6fc43ea212e93bbf8ce046c7f1cb475611737565b1115611ac557736f485c8bf6fc43ea212e93bbf8ce046c7f1cb4756000806101000a81548173ffffffffffffffffffffffffffffffffffffffff021916908373ffffffffffffffffffffffffffffffffffffffff16021790555060019050611bce565b6000611ae47320e12a1f859b3feae5fb2a0a32c18f5a65555bbf611737565b1115611b47577320e12a1f859b3feae5fb2a0a32c18f5a65555bbf6000806101000a81548173ffffffffffffffffffffffffffffffffffffffff021916908373ffffffffffffffffffffffffffffffffffffffff16021790555060019050611bce565b6000611b667351efaf4c8b3c9afbd5ab9f4bbc82784ab6ef8faa611737565b1115611bc9577351efaf4c8b3c9afbd5ab9f4bbc82784ab6ef8faa6000806101000a81548173ffffffffffffffffffffffffffffffffffffffff021916908373ffffffffffffffffffffffffffffffffffffffff16021790555060019050611bce565b600090505b919050565b6000611bdd611f13565b60008060008693506000925060009150600090505b8351811015611eae5760307f0100000000000000000000000000000000000000000000000000000000000000028482815181101515611c2d57fe5b9060200101517f010000000000000000000000000000000000000000000000000000000000000090047f0100000000000000000000000000000000000000000000000000000000000000027effffffffffffffffffffffffffffffffffffffffffffffffffffffffffffff191610158015611d45575060397f0100000000000000000000000000000000000000000000000000000000000000028482815181101515611cd557fe5b9060200101517f010000000000000000000000000000000000000000000000000000000000000090047f0100000000000000000000000000000000000000000000000000000000000000027effffffffffffffffffffffffffffffffffffffffffffffffffffffffffffff191611155b15611df6578115611d68576000861415611d5e57611eae565b8580600190039650505b600a8302925060308482815181101515611d7e57fe5b9060200101517f010000000000000000000000000000000000000000000000000000000000000090047f0100000000000000000000000000000000000000000000000000000000000000027f010000000000000000000000000000000000000000000000000000000000000090040383019250611ea1565b602e7f0100000000000000000000000000000000000000000000000000000000000000028482815181101515611e2857fe5b9060200101517f010000000000000000000000000000000000000000000000000000000000000090047f0100000000000000000000000000000000000000000000000000000000000000027effffffffffffffffffffffffffffffffffffffffffffffffffffffffffffff19161415611ea057600191505b5b8080600101915050611bf2565b6000861115611ec05785600a0a830292505b8294505050505092915050565b8060029080519060200190611ee3929190611f27565b5050565b815481835581811511611f0e57818360005260206000209182019101611f0d9190611fa7565b5b505050565b602060405190810160405280600081525090565b828054600181600116156101000203166002900490600052602060002090601f016020900481019282601f10611f6857805160ff1916838001178555611f96565b82800160010185558215611f96579182015b82811115611f95578251825591602001919060010190611f7a565b5b509050611fa39190611fa7565b5090565b611fc991905b80821115611fc5576000816000905550600101611fad565b5090565b905600a165627a7a7230582020d4377338a790cd3eb57221301c14c1f45d9d9f80cf990aab48f4c8d248d7840029",
  "source": "pragma solidity ^0.4.18;\nimport \"./oraclizeAPI.sol\";\nimport \"zeppelin-solidity/contracts/ownership/Ownable.sol\";\nimport \"./EMine.sol\";\n\n//Right now, only returns a random value between 1 and 100, however it is meant to find the optimal reward by looking at ERC712 token metadata\n//We have not implemented this since we do not have the domain knowledge to find the optimal tokens to be rewarded.\ncontract RewardOracle is usingOraclize, Ownable{\n\n    EMine public EMineContract;\n\n    event LogNewOraclizeQuery(string description);\n    event NewRewardIssued(string rewardValue);\n    event OracleFunded(uint256 value);\n\n    mapping(bytes32 => uint256) public oracleIds;\n    mapping(uint256 => address) public returnerAddress;\n    mapping(uint256 => address) public recyclerAddress;\n\n    mapping(address => uint256[]) public recyclerTokens;\n    mapping(address => uint256[]) public returnerTokens;\n\n    function rewardUserByToken (uint256 _tokenId, address _rewardAddress, bool isReturn ) payable{\n        require(msg.sender == address(EMineContract));\n\n        LogNewOraclizeQuery(\"Oraclize query was sent, standing by for the answer..\");\n\n        //Right now, only returns a random value between 1 and 100, however it is meant to find the optimal reward by looking at ERC712 token metadata\n        //We have not implemented this since we do not have the domain knowledge to find the optimal tokens to be rewarded.\n        bytes32 oraclizeId = oraclize_query(\"WolframAlpha\", \"random number between 1 and 100\");\n        oracleIds [oraclizeId] = _tokenId;\n\n        if (isReturn) {\n            returnerAddress [_tokenId] = _rewardAddress;\n            returnerTokens[_rewardAddress].push(_tokenId);\n        }\n\n        else {\n            recyclerAddress[_tokenId] = _rewardAddress;\n            recyclerTokens[_rewardAddress].push(_tokenId);\n        }\n    }\n\n    function __callback(bytes32 myid, string result) {\n        if (msg.sender != oraclize_cbAddress()) throw;\n\n        address rewardAddress = recyclerAddress[oracleIds[myid]];\n        if (rewardAddress == 0) rewardAddress = returnerAddress[oracleIds[myid]];\n\n        EMineContract.giveRewardToken(rewardAddress, parseInt(result));\n        NewRewardIssued(result);\n    }\n\n    function setEMineContract (EMine _EMineContract) onlyOwner{\n        EMineContract = _EMineContract;\n    }\n\n    function fundOracle() payable{\n        OracleFunded(msg.value);\n    }\n\n    function getRecyclerArrayLength (address _addr) public view returns (uint256){\n        return recyclerTokens[_addr].length;\n    }\n\n    function getReturnerArrayLength (address _addr) public view returns (uint256){\n        return returnerTokens[_addr].length;\n    }\n\n}",
  "sourcePath": "/home/orhun/e-mine2/contracts/RewardOracle.sol",
  "compiler": {
    "name": "solc",
    "version": "0.4.21+commit.dfe3193c.Emscripten.clang"
  },
  "schemaVersion": "2.0.0",
  "updatedAt": "2018-04-28T19:53:50.263Z"
}